:100000000C9462000C948A000C948A000C948A0070
:100010000C948A000C948A000C948A000C948A0038
:100020000C948A000C948A000C948A000C9423038C
:100030000C948A000C948A000C948A000C948A0018
:100040000C94D9020C948A000C9460010C943A012F
:100050000C948A000C948A000C948A000C948A00F8
:100060000C948A000C948A000000000024002700F1
:100070002A000000000023002600290004040404D4
:100080000404040402020202020203030303030342
:10009000010204081020408001020408102001021F
:1000A00004081020000000080002010000030407FB
:1000B00000000000000000000000000025002800F3
:1000C0002B00210D11241FBECFEFD8E0DEBFCDBF26
:1000D00011E0A0E0B1E0EEE4FCE102C005900D9279
:1000E000A63AB107D9F722E0A6EAB1E001C01D9215
:1000F000AE3DB207E1F710E0C2E6D0E004C02197C0
:10010000FE010E941A0EC136D107C9F70E941009DC
:100110000C94250E0C940000089580E090E0089562
:10012000FC01538D448D252F30E0842F90E0821BFD
:10013000930B541710F0CF96089501970895FC0182
:10014000918D828D981761F0828DDF01A80FB11D0E
:100150005D968C91928D9F5F9F73928F90E0089532
:100160008FEF9FEF0895FC01918D828D981731F0EC
:10017000828DE80FF11D858D90E008958FEF9FEF40
:10018000089581EC91E00E94920121E0892B09F40D
:1001900020E0822F0895EF92FF920F931F93CF9349
:1001A000DF93EC0181E0888F9B8D8C8D981305C0C7
:1001B000E889F989808185FD26C0F62E0B8D10E037
:1001C0000F5F1F4F0F731127E02E8C8DE8120CC0AC
:1001D0000FB607FCFACFE889F989808185FFF5CF52
:1001E000CE010E94DD01F1CF8B8DFE01E80FF11DE4
:1001F000E35AFF4FF0829FB7F8940B8FEA89FB898F
:10020000808180620AC09FB7F894EE89FF8960837D
:10021000E889F98980818370806480839FBF81E051
:1002200090E0DF91CF911F910F91FF90EF90089593
:10023000CF93DF93EC01888D8823C9F0EA89FB898D
:10024000808185FD05C0A889B9898C9186FD0FC084
:100250000FB607FCF5CF808185FFF2CFA889B98959
:100260008C9185FFEDCFCE010E94DD01E7CFDF91BC
:10027000CF9108951F920F920FB60F9211242F93D2
:100280003F934F935F936F937F938F939F93AF931E
:10029000BF93EF93FF9381EC91E00E94DD01FF910A
:1002A000EF91BF91AF919F918F917F916F915F91EE
:1002B0004F913F912F910F900FBE0F901F90189567
:1002C0001F920F920FB60F9211242F938F939F932B
:1002D000EF93FF93E091D101F091D2018081E09101
:1002E000D701F091D80182FD12C090818091DA018E
:1002F0008F5F8F732091DB01821751F0E091DA015B
:10030000F0E0EF53FE4F958F8093DA0101C08081BA
:10031000FF91EF919F918F912F910F900FBE0F90B2
:100320001F901895FC01918D228D892F90E0805CA3
:100330009F4F821B91098F739927089580E090E069
:10034000892B29F00E94C10081110C9400000895AE
:100350003FB7F8948091BD019091BE01A091BF017B
:10036000B091C00126B5A89B05C02F3F19F001969A
:10037000A11DB11D3FBFBA2FA92F982F8827820F2B
:10038000911DA11DB11DBC01CD0142E0660F771F7B
:10039000881F991F4A95D1F70895BC016E5F7F4F62
:1003A000DC01ED91FC910190F081E02D40E0099598
:1003B00091E0811190E0892F0895FC01848DDF0187
:1003C000A80FB11DA35ABF4F2C91848D90E00196C8
:1003D0008F739927848FA689B7892C93A089B189B7
:1003E0008C91837080648C93938D848D981306C058
:1003F0000288F389E02D80818F7D8083089583308A
:1004000081F028F4813099F08230A1F0089587308E
:10041000A9F08830B9F08430D1F4809180008F7DCC
:1004200003C0809180008F7780938000089584B509
:100430008F7702C084B58F7D84BD08958091B00010
:100440008F7703C08091B0008F7D8093B0000895B6
:100450001F93CF93DF93282F30E0F901EC55FF4F26
:100460008491F901E057FF4FD491F901E458FF4F0F
:10047000C491CC23C1F0162F81110E94FF01EC2FF3
:10048000F0E0EE0FFF1FE854FF4FA591B4919FB726
:10049000F894111104C08C91D095D82302C0EC912E
:1004A000DE2BDC939FBFDF91CF911F910895CF93F7
:1004B000DF9390E0FC01E057FF4F2491FC01E458EA
:1004C000FF4F8491882361F190E0880F991FFC0110
:1004D000E859FF4FC591D491FC01E854FF4FA59115
:1004E000B491611109C09FB7F89488812095822347
:1004F0008883EC912E230BC0623061F49FB7F8948F
:100500008881322F309583238883EC912E2B2C9376
:100510009FBF06C08FB7F894E8812E2B28838FBF2A
:10052000DF91CF9108958F929F92AF92BF92CF9219
:10053000DF92EF92FF926B017C010E94A8014B01B8
:100540005C01C114D104E104F104F1F00E94A8019E
:10055000DC01CB0188199909AA09BB09883E93409F
:10056000A105B10570F321E0C21AD108E108F10834
:1005700088EE880E83E0981EA11CB11CC114D10422
:10058000E104F10419F7DDCFFF90EF90DF90CF90F9
:10059000BF90AF909F908F9008952FB7F89460917F
:1005A000B9017091BA018091BB019091BC012FBF3C
:1005B00008951F920F920FB60F9211242F933F931D
:1005C0008F939F93AF93BF938091B9019091BA019C
:1005D000A091BB01B091BC013091B80123E0230F81
:1005E0002D3720F40196A11DB11D05C026E8230F6B
:1005F0000296A11DB11D2093B8018093B90190937B
:10060000BA01A093BB01B093BC018091BD01909150
:10061000BE01A091BF01B091C0010196A11DB11D05
:100620008093BD019093BE01A093BF01B093C00120
:10063000BF91AF919F918F913F912F910F900FBEDE
:100640000F901F9018951F920F920FB60F921124C2
:100650002F933F934F935F936F937F938F939F93CA
:10066000AF93BF93EF93FF938091B70187FF05C0CE
:1006700010928500109284001BC02091B701022EB9
:10068000000C330B8091CA0290E02817390784F4DC
:100690008091B701082E000C990BFC01EE0FFF1F93
:1006A0008E0F9F1FFC01EA55FD4F808186FD15C00E
:1006B0008091B7018F5F8093B7012091B701022E1F
:1006C000000C330B8091CA0290E028173907C4F45C
:1006D0008091B7018C3064F113C08091B701082E6E
:1006E000000C990BFC01EE0FFF1F8E0F9F1FFC01EA
:1006F000EA55FD4F808160E08F730E942802D8CFB9
:100700008091840090918500049680349C4918F46F
:1007100080E49CE905C08091840090918500049656
:1007200090938900809388008FEF8093B7013BC03E
:1007300020918400309185008091B701082E000C33
:10074000990BFC01EE0FFF1F8E0F9F1FFC01EA5556
:10075000FD4F81819281820F931F90938900809336
:1007600088008091B701082E000C990BFC01EE0F58
:10077000FF1F8E0F9F1FFC01EA55FD4F808186FFF2
:1007800012C08091B701082E000C990BFC01EE0FEE
:10079000FF1F8E0F9F1FFC01EA55FD4F808161E016
:1007A0008F730E942802FF91EF91BF91AF919F91AB
:1007B0008F917F916F915F914F913F912F910F900A
:1007C0000FBE0F901F90189508958EBD00000DB4B8
:1007D00007FEFDCF8EB508958CBD9DBD08951F9376
:1007E000CF93DF93EC01162F83E590E00E94EC039A
:1007F00060E08E850E942802812F80680E94E503B8
:1008000080E00E94E503182F61E08E850E94280297
:10081000812FDF91CF911F9108950F931F93CF9355
:10082000DF93EC01062F142F83E590E00E94EC0388
:1008300060E08E850E942802802F0E94E503812FB0
:100840000E94E50361E08E85DF91CF911F910F91AA
:100850000C9428028F929F92AF92CF92EF92FF92C8
:100860000F931F93CF93DF9300D000D01F92CDB78B
:10087000DEB74C0182E08D8340E064E2C4010E9457
:100880000D0440E066E2C4010E940D0446E268E403
:10089000C4010E940D0486E28B838D81823040F179
:1008A0006CE1C4010E94EF03482F4F776CE1C40153
:1008B0000E940D0487E08C83A12CC12CCE010496EC
:1008C0007C018E010B5F1F4F9E012F5F3F4F41E068
:1008D000BE016D5F7F4FC4010E94A00781110BC054
:1008E0008D81823039F481E09C81911104C008C06F
:1008F00084E001C081E091E0823019F090E001C015
:1009000091E0892F0F900F900F900F900F90DF9133
:10091000CF911F910F91FF90EF90CF90AF909F904C
:100920008F900895CF92DF92EF92FF920F931F93D3
:10093000CF93DF93EC016B01142F790140E062E06B
:100940000E940D0444E06AE0CE010E940D0440E8DC
:1009500064E1CE010E940D04A601612FCE010E9428
:100960006E0743E062E0CE010E940D0408E813E147
:100970006AE0CE010E94EF0382FF13C040E062E014
:10098000CE010E940D0464E4CE010E94EF03F70142
:10099000808362E4CE010E94EF03F701818380E04F
:1009A00004C00150110921F783E0DF91CF911F911D
:1009B0000F91FF90EF90DF90CF9008952F923F928C
:1009C0004F925F926F927F928F929F92AF92BF925F
:1009D000CF92DF92EF92FF920F931F93CF93DF930B
:1009E000CDB7DEB72C970FB6F894DEBF0FBECDBFE4
:1009F000413508F00BC1342E3B014C016CE10E94E3
:100A0000EF03482F4F776CE1C4010E940D042224AC
:100A1000239432E0231691F083E02816E1F091E070
:100A20002912F6C083E989833320D1F081E0F301F4
:100A30009081953008F480E0B12C17C0F5E9F98376
:100A4000332081F081E0F3019081983008F480E058
:100A500043E0B42E0AC087E9898336E0B32E04C090
:100A6000B12C02C023E0B22E80E0D32CF8E0BF9E70
:100A7000D0181124D7FCD12C882321F098E89B832F
:100A800033E001C032E021E09D2D977009F420E0B1
:100A90009D2D959595959595290F31F4882309F409
:100AA00092C038E0D30E8FC0811102C094E001C023
:100AB00093E0291708F4922FEB2DF0E03196E60D24
:100AC000F71D232F4191A1E0B0E0AC0FBD1FA20F95
:100AD000B11D4C932F5F422F431B491798F3DECF74
:100AE0008111DEC09FE19D150CF494C080E2D82EE8
:100AF00090E79A839B818C8189279D8189279E819C
:100B000089278F839E01285F3F4F47E0BE016F5FBB
:100B10007F4FC4010E9492048111A3C01A86E3E0B2
:100B2000EB87CE0107962C0199E09C87CA844C2D57
:100B30004295407F4C0D6AE1C4010E940D04A12C36
:100B4000CE010A967C018E01055F1F4F92014C85F4
:100B5000BE016F5F7F4FC4010E94A007182F823033
:100B600009F0BECF6CE1C4010E94EF0385FD98C07F
:100B70008F7109F480E2282F30E04D2DDD0C550BEC
:100B8000421753070CF044C0D82E8595859585955E
:100B900091E0980F422F477081E009F480E0890FBF
:100BA000E1E0F0E0EC0FFD1FE80FF11D21503109ED
:100BB0002770332781E090E001C0880F2A95EAF77B
:100BC0009081892B80838FE18D150CF491CF9D2D21
:100BD00097709A878D2D8595859585958E5F292FA0
:100BE000E0E18E9F200D11242A8321E0911101C0A4
:100BF00020E0280F2C8744244394512C4C0E5D1E7A
:100C0000480E511CF9E0F81BFB8790CF16E048C056
:100C100015E046C08B81883809F43FC082E094E03B
:100C2000EB2DF0E03196E60DF71D980FA1E0B0E056
:100C3000AC0FBD1FA80FB11D2C9121938F5F89139D
:100C4000F5CF8B85833029F58A85811122C09E01DD
:100C50002D5F3F4F41E0B201C4010E9492048823FE
:100C600011F0182F1DC09B81F2018181981313C0D0
:100C70009C81828198130FC0808182FF02C02394DF
:100C8000C8CEF3018387822D880F820D8F5F80830A
:100C900007C011E005C017E003C083E093E0C0CFB8
:100CA000812F2C960FB6F894DEBF0FBECDBFDF911B
:100CB000CF911F910F91FF90EF90DF90CF90BF9059
:100CC000AF909F908F907F906F905F904F903F90EC
:100CD0002F900895CF93C82F68EC70E080E090E0EB
:100CE0000E94930261E08C2F0E94280268EC70E061
:100CF00080E090E00E94930260E08C2FCF910C94F2
:100D00002802CF92DF92EF92FF920F931F93CF931F
:100D1000DF936C017A018B01C0E0D0E0CE15DF05D6
:100D200081F0D8016D918D01D601ED91FC9101907A
:100D3000F081E02DC6010995892B11F02196EECFA7
:100D40007E01C701DF91CF911F910F91FF90EF902E
:100D5000DF90CF9008950E94200E6115710579F003
:100D6000FB0101900020E9F73197AF01461B570BBB
:100D7000DC01ED91FC910280F381E02D099480E08B
:100D800090E00895E1ECF1E0A089B18982E08C93D4
:100D9000A485B5851C92A685B7858FEC8C93108EA3
:100DA000A489B58986E08C93A289B3898C918061EE
:100DB0008C93A289B3898C9188608C93A289B38922
:100DC0008C9180688C930288F389E02D80818F7DDF
:100DD00080830895CF92DF92EF92FF92DC01A032E0
:100DE00082E0B8070CF03EC0B7FD06C0A53BB105D8
:100DF0002CF0A4EBB0E002C0A0E0B0E08091CC0207
:100E000028E830E06901C81AD10887FDD394CC0CDA
:100E1000DD1CCC0CDD1C0D2C000CEE08FF088091B5
:100E2000CD0228E532E0281B310987FD3395220FDA
:100E3000331F220F331FA901330F660B770B9A0163
:100E4000AB012C193D094E095F090E94F70D24EBF7
:100E500030E040E050E00E94CD0DC20ED31EE41EF3
:100E6000F51ED6019091CB029C3098F58091CC0272
:100E700048E850E0481B510987FD5395440F551F22
:100E8000440F551FA417B5078CF08091CD0228E5BB
:100E900032E0281B310987FD3395220F331F220FC3
:100EA000331FAD012A173B070CF4A9014250510929
:100EB000440F551F2FB7F894892F90E0FC01EE0FD7
:100EC000FF1F8E0F9F1FFC01EA55FD4F5283418388
:100ED0002FBFFF90EF90DF90CF900895DF92EF92B9
:100EE000FF920F931F93CF93DF938C01F62ED42E96
:100EF000E52E83E590E00E94EC0360E0F801868532
:100F00000E94280282E10E94E503CD2DDE2DCE0154
:100F10008F0D911D7C01EC16FD0621F089910E9438
:100F2000E503F9CF61E0F80186850E942802DF9190
:100F3000CF911F910F91FF90EF90DF900C94E403FD
:100F40004F925F926F927F928F929F92AF92BF92D9
:100F5000CF92DF92EF92FF920F931F93CF93DF9385
:100F600000D0CDB7DEB74C012B01D42E3901E114EE
:100F7000F10419F0F701408101C040E0B42EF0E126
:100F8000CF9EB00C112440E062E0C4010E940D0429
:100F90004FE768E0C4010E940D0440E864E1C40129
:100FA0000E940D04A2016D2DC4010E946E074B2DFD
:100FB0006AE1C4010E940D044CE062E0C4010E9499
:100FC0000D046AE1C4010E94EF03482F40686AE102
:100FD000C4010E940D0480ED482E87E0582E68E081
:100FE000C4010E94EF03982F907341F480FD04C068
:100FF00081E0481A510899F783E0A0C06CE0C40171
:101000000E94EF03D82E837109F095C0611471041A
:1010100009F45AC00115110509F456C064E1C40170
:101020000E94EF03B82EF80180818B1508F47DC073
:10103000B082BB20F1F183E590E00E94EC0360E018
:10104000F40186850E942802BA9482E90E94E50391
:10105000CC20A9F08FEF90E02C0101C0440CCA9481
:10106000EAF782E90E94E503242D2095F30190819F
:1010700092238421892B8083CC24C39401C0C12C6A
:101080004C2C512C460C571CCB1438F482E90E948E
:10109000E503F2018083C394F3CF80E00E94E5036F
:1010A000F201808361E0F40186850E9428020E949B
:1010B000E40368E1C4010E94EF038770E114F104C6
:1010C00021F0F701808301C080E0D3FC30C06114BF
:1010D000710479F10115110561F1AA2051F1F801AE
:1010E0004081413021F4843041F58FEF27C04230F8
:1010F00020F1811122C042509E012F5F3F4FB3016A
:10110000C4010E949204811119C0F8018081680E07
:10111000711CF30132979081898198130EC031962A
:1011200090818A81981309C004C084E007C082E0DE
:1011300005C080E003C081E001C087E00F900F9000
:10114000DF91CF911F910F91FF90EF90DF90CF90A3
:10115000BF90AF909F908F907F906F905F904F90D7
:1011600008958F929F92AF92BF92EF92FF920F934A
:101170001F93CF93DF93CDB7DEB7A1970FB6F89447
:10118000DEBF0FBECDBF7C01FA01CB0119A2223018
:1011900008F42AE08E010F5D1F4F822E912CA12CA6
:1011A000B12CBF01A50194010E94AB0DF901CA0148
:1011B000015011096A3014F4605D01C0695CD80106
:1011C0006C93232B242B252B61F7B801C7010E94B8
:1011D000AD06A1960FB6F894DEBF0FBECDBFDF916E
:1011E000CF911F910F91FF90EF90BF90AF909F9084
:1011F0008F9008950F931F93CF93DF93EC010E947C
:10120000AD068C0168E371E0CE010E94AD06800F4F
:10121000911FDF91CF911F910F9108950C94AD060E
:10122000CF93DF9300D000D0CDB7DEB7789484B5EC
:10123000826084BD84B5816084BD85B5826085BDD2
:1012400085B5816085BD80916E00816080936E0060
:101250001092810080918100826080938100809152
:101260008100816080938100809180008160809303
:1012700080008091B10084608093B1008091B000C3
:1012800081608093B00080917A00846080937A00BE
:1012900080917A00826080937A0080917A008160E8
:1012A00080937A0080917A00806880937A0010920F
:1012B000C1001092A2021092A3021092A4021092F6
:1012C000A5021092600210926102109262021092C6
:1012D00063020E94CD026B017C012B013C0188EB73
:1012E000480E8BE0581E611C711C0E94CD026C15CB
:1012F0007D058E059F0528F0461657066806790677
:10130000A0F781EC91E09093A1028093A0020E944B
:10131000C2060E94CD0260936002709361028093C6
:1013200062029093630269E271E08091A002909161
:10133000A1020E940E090E94CD026B017C012B01CB
:101340003C019AE0490E511C611C711C0E94CD02A7
:101350006C157D058E059F0528F046165706680614
:101360007906A0F781E0809374020E94C2061FB73D
:10137000F8948091A601811127C0E6E8F0E08491FD
:10138000EAE9F0E09491E82FF0E0EE0FFF1FE85952
:10139000FF4FA591B491EC91E92321F461E08AE03B
:1013A0000E94280261E08AE00E9457028CB58061A9
:1013B0008CBD8CB580648CBD61E08DE00E945702CD
:1013C00061E08BE00E9457028091A6018F5F8093BD
:1013D000A6011FBF8091CB028C3008F051C061E0A4
:1013E00086E00E9457028091CB02E82FF0E09F0137
:1013F000220F331FE20FF31FEA55FD4F9081907CBF
:10140000966090831092CC021092CD026CE00E9404
:101410000E0EACE08A9FB001112440E050E09B0129
:10142000240F351FF901EE0FFF1F2E0F3F1FF9018B
:10143000EA55FD4F908196FD16C04F5F5F4F4C30CF
:10144000510569F781110FC01092800082E08093EE
:1014500081001092850010928400B19A80916F00F3
:10146000826080936F00E091CB02F0E0CF01880FA3
:10147000991FE80FF91FEA55FD4F80818064808332
:1014800061E08091DC020E94570261E08091DC0201
:101490000E9428028091DD028F3F41F44FE062E01C
:1014A0008EEC92E00E940D0413E025C060E00E94E3
:1014B00057022091DD0230E0F901EC55FF4F849195
:1014C000F901E057FF4F0491F901E458FF4F1491DF
:1014D0001123F9F081110E94FF01E12FF0E0EE0FDE
:1014E000FF1FEE58FF4FA591B491EC91E02389F0D6
:1014F000D5CF115039F162E370E080E090E00E94B6
:10150000930262E08EEC92E00E94EF0384FF1AC027
:10151000F0CF61E08091DD020E94570260E080918F
:10152000DD020E94280283E090E00197F1F761E07C
:101530008091DD020E94280262E370E080E090E08A
:101540000E94930240E064E28EEC92E00E940D045F
:1015500040E066E28EEC92E00E940D0446E268E410
:101560008EEC92E00E940D0440E864E58EEC92E07F
:101570000E940D0449EA66E58EEC92E00E940D049B
:1015800043E068E58EEC92E00E940D0448EE6AE5C7
:101590008EEC92E00E940D0440E46AE28EEC92E050
:1015A0000E940D044DE362E28EEC92E00E940D0475
:1015B00068E28EEC92E00E94EF03982F93709330D4
:1015C00039F0482F436068E28EEC92E00E940D04EF
:1015D00061E084E00E94570261E082E00E945702CD
:1015E0006BE371E081EC91E00E94FA0880E090E00A
:1015F0000E94EA0684EF482E55245394612C712CE6
:1016000090E5392E0E94CD02672B682B692B41F49F
:101610000E94CD02623071058105910508F409C16F
:101620000E94CD020091B3011091B4012091B50147
:101630003091B601601771078207930740F46093F9
:10164000B3017093B4018093B5019093B6010091FA
:10165000B3011091B4012091B5013091B6016B0135
:101660007C01C01AD10AE20AF30A970186010A3FF7
:1016700011052105310508F4DCC06093B3017093B6
:10168000B4018093B5019093B60140926C025092E0
:101690006D0260926E0270926F0210927002109250
:1016A0007102109272021092730280916402909102
:1016B0006502A0916602B0916702809368029093E0
:1016C0006902A0936A02B0936B020E94CD026093FC
:1016D00064027093650280936602909367020E9491
:1016E000CD026093600270936102809362029093D6
:1016F00063020E94CD026B017C016BE571E0809179
:10170000A0029091A1020E940E092AE041E050E05F
:1017100060E070E08091A0029091A1020E94B10867
:1017200062E671E08091A0029091A1020E940E09F0
:101730002AE0B701A6018091A0029091A1020E9427
:10174000B10864E671E08091A0029091A1020E942C
:101750000E098091640290916502A0916602B09199
:101760006702B701A601481B590B6A0B7B0B2AE0E5
:101770008091A0029091A1020E94B10864E671E0FC
:101780008091A0029091A1020E940E0940916402F2
:1017900050916502609166027091670280916802C3
:1017A00090916902A0916A02B0916B02481B590B9B
:1017B0006A0B7B0B2AE08091A0029091A1020E940B
:1017C000B10866E671E08091A0029091A1020E94AA
:1017D0000E090E94CD02AB01BC012AE08091A0025B
:1017E0009091A1020E94B10868E671E08091A00288
:1017F0009091A1020E94FA080E94CD024B015C0167
:101800006B017C0182E0C80ED11CE11CF11C0E941E
:10181000CD02681579058A059B0508F0BCC00E94B9
:10182000CD02609364027093650280936602909388
:101830006702A1E0B0E0B0930901A09308018EEC2B
:1018400092E00E942A04882309F4A2C08EEC92E060
:101850000E94CD01882309F49BC06FE671E081EC02
:1018600091E00E940E09C12C8091D002C81630F57B
:101870000C2D10E0F801E253FD4F7F018381803190
:1018800018F06DE771E002C066E271E081EC91E072
:101890000E940E09D70113964C9150E060E070E071
:1018A00020E181EC91E00E94B108F801E555FE4F7E
:1018B000D70113968C918083C394D6CF69E771E0EA
:1018C00081EC91E00E940E09EBEAF1E0A0E0B1E0CA
:1018D00091918D91981366C081E0EF3AF807C1F7B6
:1018E0008091A9019091AA01892B61F56FE771E0C0
:1018F00081EC91E00E94FA0884E090E00E946A0680
:1019000000E010E0C8010E94EA066FE070E080E0AD
:1019100090E00E9493020F5F1F4F0036110591F770
:1019200084E090E00E946A061092A8011092A7013C
:10193000A1E0B0E0B093AA01A093A901109209011F
:10194000109208018091A9019091AA01019709F4D0
:1019500052C039821A829E012D5F3F4F42E0BE0184
:101960006F5F7F4F8EEC92E00E949204811110C055
:10197000A12CC12CE12CF12C00E010E020E030E0A3
:1019800044E0BE016F5F7F4F8EEC92E00E94A007A3
:101990000E949E0137CEC616D706E806F90608F063
:1019A00036CF3DCF63E971E081EC91E00E94FA0807
:1019B00082E090E00E946A0682E090E00E946A065F
:1019C0008091A7019091A80101969093A80180931E
:1019D000A701039709F0BDCF61E082E00E942802D1
:1019E00060E67AEE80E090E00E94930260E082E0A0
:1019F0000E942802AECF80910801909109010197C1
:101A000009F0A7CF84E090E00E946A060FE510E09D
:101A1000C8010E94EA066FE070E080E090E00E945A
:101A2000930201501109A0F782E090E00E946A063B
:101A30001092A8011092A7011092AA011092A90178
:101A400088CF1092C4011092C30188EE93E0A0E009
:101A5000B0E08093C5019093C601A093C701B093F5
:101A6000C8018EE091E09093C2018093C10185ECA2
:101A700090E09093CE018093CD0184EC90E0909320
:101A8000D0018093CF0180EC90E09093D2018093BD
:101A9000D10181EC90E09093D4018093D30182EC4A
:101AA00090E09093D6018093D50186EC90E09093DE
:101AB000D8018093D7011092DA011092DB011092C5
:101AC000DC011092DD011092640210926502109206
:101AD00066021092670210926802109269021092D8
:101AE0006A0210926B0210926C0210926D021092B8
:101AF0006E0210926F021092700210927102109298
:101B000072021092730280E291E09093CF02809370
:101B1000CE028AE08093DC0289E08093DD0280912E
:101B2000CA028C30A0F491E0980F9093CA0280937F
:101B3000CB0290E0FC01EE0FFF1F8E0F9F1FFC01F8
:101B4000EA55FD4F88EB9BE09283818308958FEFE8
:101B50008093CB020895A1E21A2EAA1BBB1BFD01A4
:101B60000DC0AA1FBB1FEE1FFF1FA217B307E4077C
:101B7000F50720F0A21BB30BE40BF50B661F771FD4
:101B8000881F991F1A9469F76095709580959095B4
:101B90009B01AC01BD01CF010895052E97FB1EF4FA
:101BA00000940E94E40D57FD07D00E94AB0D07FC86
:101BB00003D04EF40C94E40D50954095309521954A
:101BC0003F4F4F4F5F4F0895909580957095619569
:101BD0007F4F8F4F9F4F08950E94FF0DA59F900D3F
:101BE000B49F900DA49F800D911D11240895B7FFFF
:101BF0000C94EC0D0E94EC0D821B930B0895A29F98
:101C0000B001B39FC001A39F700D811D1124911DD0
:101C1000B29F700D811D1124911D0895991B79E0CB
:101C200004C0991F961708F0961B881F7A95C9F76C
:101C300080950895EE0FFF1F0590F491E02D099413
:0E1C400081E090E0F8940C94250EF894FFCF0C
:101C4E0060662BA500000000010000000000CB0024
:101C5E0081069000180192019F00B3000000000061
:101C6E00DE042A04CD01203000564D4450565F311B
:101C7E007C315F564D4450560D0A005061736520FD
:101C8E006C61207461726A65746120706F72206479
:101C9E0065746563746F722E2E2E00564D4450453A
:101CAE005F003A323A007C005F564D445045004387
:101CBE00617264205549443A0020202020200041C2
:101CCE00636365736F20636F6E63656469646F2E03
:101CDE002E2E0041636365736F2064656E656761C8
:061CEE00646F2E2E2E0093
:00000001FF
